:020000040800F2
:100000000028002001160008590200085B020008C1
:100010005D0200085F0200086102000800000000A5
:100020000000000000000000000000006302000863
:10003000650200080000000067020008690200086D
:100040004916000849160008491600084916000814
:100050004916000849160008491600084916000804
:1000600049160008491600084916000849160008F4
:1000700049160008491600084916000849160008E4
:1000800049160008491600084916000849160008D4
:10009000710200088102000849160008491600088C
:1000A00049160008491600084916000849160008B4
:1000B000491600084916000800000000491600080B
:1000C0004916000800000000000000004916000862
:1000D0000000000049160008491600080000000052
:1000E00049160008491600084916000800000000DB
:1000F0000000000000000000000000000000000000
:0C01000000000000000000005FF808F1A3
:10010C0010B5054C237833B9044B13B10448AFF345
:10011C0000800123237010BD0C00002000000000A3
:10012C00A416000808B5034B1BB103490348AFF3F1
:10013C00008008BD0000000010000020A41600087C
:10014C0030B591B02822002106A801F09DFA0024B8
:10015C0001940294039404940594012206924FF4A2
:10016C00803307930A9202250D950E934FF4E013FA
:10017C000F9306A800F0BAFD0F2301930295039488
:10018C004FF4806304930594294601A800F0EEFF18
:10019C0011B030BD08B500F05BFDFFF7D1FF00F0EA
:1001AC0019F800F091F800F023F900F051F9064825
:1001BC0000F010F94FF40051044801F0A3F941F29A
:1001CC00883000F069FDF2E72800002000100140A3
:1001DC007047000030B589B000240494059406944F
:1001EC000794184B9A6942F010029A619A6902F0CE
:1001FC0010020192019A9A6942F020029A619A695E
:10020C0002F020020292029A9A6942F004029A6168
:10021C009B6903F004030393039B0B4D01224FF4E2
:10022C000051284601F068F94FF400530493012360
:10023C00059306940223079304A9284601F04CF871
:10024C0009B030BD00100240001001407047FEE7BD
:10025C00FEE7FEE7FEE770477047704708B500F011
:10026C0009FD08BD08B5024800F0A7FB08BD00BF9A
:10027C004C00002008B5024800F09FFB08BD00BFF1
:10028C004C00002082B00E4B9A6942F001029A6138
:10029C009A6902F001020092009ADA6942F08052E7
:1002AC00DA61DB6903F080530193019B054A5368C3
:1002BC0023F0E06343F00073536002B0704700BF5B
:1002CC00001002400000014008B50D480D4B0360C2
:1002DC000923436000238360C3604FF40032026142
:1002EC004FF440124261037643768376C3760377EC
:1002FC00437700F0C1F800B908BDFFF769FFFBE7D1
:10030C004C0000200064004030B587B000230293FD
:10031C0003930493059302681E4B9A4201D007B0D5
:10032C0030BD03F5D633DA6942F00072DA61DA696E
:10033C0002F000720092009A9A6942F004029A61EB
:10034C009B6903F004030193019B4FF40063029338
:10035C00114D02A9284600F0BFFF4FF480530293C1
:10036C00022403940323059302A9284600F0B4FF4A
:10037C0000220121142001F0E1F8142001F016F9FB
:10038C0000222146152001F0D9F8152001F00EF9B4
:10039C00C5E700BF006400400008014000B58BB009
:1003AC000023059306930122079200930193029375
:1003BC000393049308920E2309936946044800F0B2
:1003CC0001F910B90BB05DF804FBFFF701FFF9E779
:1003DC004C00002008B5034600F11C02011D034827
:1003EC0000F0A4F900B908BD0120FCE74C00002086
:1003FC0010B5FFF769FFFFF7D1FF044C204600F062
:10040C0067F90221204600F0BAFA10BD4C0000201A
:10041C0002680D4B1B689A4200D0704710B5044619
:10042C000A4A02F11C03002100F0FEF950B110BD84
:10043C000133064A12699A42FAD80221204600F08A
:10044C009EFAF4E70023F4E74C000020740000202F
:10045C00084A40F2213353600023D36008215161D4
:10046C001361137603E0034A1A4413770133072B05
:10047C00F9DD704728000020002800F0A18038B575
:10048C00044690F82030D3B12268136843F001037E
:10049C00136000F0FBFB054623685A6812F0010F4D
:1004AC0010D100F0F3FB401B0A28F5D9636A43F422
:1004BC0000336362052384F82030012038BDFFF738
:1004CC0023FFE1E71A6822F002021A6000F0DEFB5B
:1004DC00054623685A6812F0020F0DD000F0D6FBC7
:1004EC00401B0A28F5D9636A43F400336362052381
:1004FC0084F820300120E1E7227E012A3DD01A68E1
:10050C0022F080021A60637E012B3BD022681368B4
:10051C0023F040031360A37E012B39D022681368AB
:10052C0023F020031360E37E012B37D0226813687D
:10053C0043F010031360237F012B35D0226813681E
:10054C0023F008031360637F012B33D022681368F8
:10055C0023F004031360A368E26813432269134376
:10056C00626913436268013A21681343CB6100202E
:10057C006062012384F82030A0E71A6842F0800200
:10058C001A60C0E72268136843F040031360C2E7A7
:10059C002268136843F020031360C4E722681368D1
:1005AC0023F010031360C6E72268136843F00803B6
:1005BC001360C8E72268136843F004031360CAE7AA
:1005CC0001207047026890F82030013BDBB2012B10
:1005DC0005D9436A43F4802343620120704710B568
:1005EC00D2F8003243F00103C2F800324B6903F039
:1005FC001F03012000FA03F3D2F81C026FEA030C6C
:10060C0020EA0300C2F81C02C869C0B9D2F80C0277
:10061C000CEA0000C2F80C028C884869D1F80CE096
:10062C0044EA0E44483042F830400C884869D1F80E
:10063C0008E044EA0E44483002EBC0004460C8694C
:10064C0001281AD0886988BBD2F804020CEA000091
:10065C00C2F80402086978BBD2F814020CEA000054
:10066C00C2F81402096A01292CD0D2F8003223F006
:10067C000103C2F80032002010BDD2F80C0218435E
:10068C00C2F80C028C884869D1F800E044EA0E44A8
:10069C00483042F830408C894869D1F808E044EA87
:1006AC000E44483002EBC0004460CBE7D2F80402A1
:1006BC001843C2F80402CDE7D2F814021843C2F86A
:1006CC001402CFE7D2F81C120B43C2F81C32CCE751
:1006DC0070B5044690F82050EDB2012D06D0436A57
:1006EC0043F4002343620125284670BD022380F8A1
:1006FC0020300268136823F00103136000F0C6FA7F
:10070C00064623685B6813F0010F0CD000F0BEFAAC
:10071C00831B0A2BF5D9636A43F400336362052308
:10072C0084F82030E0E700256562DDE730B590F80D
:10073C0020C00468A4680CF1FF3C5FFA8CFCBCF18F
:10074C00010F6BD814F0E05F62D0C4F3016CBCF104
:10075C00020F05D9436A43F400034362012062E0AF
:10076C00012404FA0CF41C608B68002B3DD10D683D
:10077C00CB68046843EA45550CF118031B01E5509E
:10078C0003680C690CF1180E03EB0E135C600B7D07
:10079C00012B35D0D17993791B0443EA016351794C
:1007AC0043EA012314790168234301EB0C11C1F8CE
:1007BC008C31D17893781B0443EA0163517843EA76
:1007CC000123117802680B4302EB0C12C2F888313A
:1007DC0002680CF1180C4FEA0C1C52F80C3043F068
:1007EC00010342F80C3000201DE04C6843EAC403BE
:1007FC00CC6823430CF11804240105682B51BFE786
:10080C00036803EB0E13596841F480715960C1E71A
:10081C00436A43F400134362012004E0436A43F447
:10082C0080234362012030BD90F820C00CF1FF3CC6
:10083C005FFA8CFCBCF1010F00F29B8010B451B933
:10084C000468E46814F0030F10D1436A43F40013F6
:10085C00436201207BE00468246914F0030F05D186
:10086C00436A43F400134362012070E001F11B045E
:10087C002401D0F800C05CF8044004F00404946037
:10088C00002C66D101F11B042401D0F800C05CF8E7
:10089C000440640D1460046801F11B0C4FEA0C1C3D
:1008AC0054F80C4004F00204D46004686444646896
:1008BC0004F00F041461046864446468C4F30724EE
:1008CC009461046864446468240C5461026802EB0B
:1008DC000112D2F8B8211A70026802EB0112D2F898
:1008EC00B821C2F307225A70026802EB0112D2F847
:1008FC00B821C2F307429A70026802EB0112D2F8D7
:10090C00B821120EDA70026802EB0112D2F8BC2187
:10091C001A71026802EB0112D2F8BC21C2F3072251
:10092C005A71026802EB0112D2F8BC21C2F30742E1
:10093C009A71026802EB0112D2F8BC21120EDA7124
:10094C0089B90268D36843F02003D360002010BC3F
:10095C00704701F11B042401D0F800C05CF804407E
:10096C00E408546097E70268136943F020031361AD
:10097C00ECE7436A43F4802343620120704790F80C
:10098C002030013BDBB2012B05D9436A43F48023B1
:10099C00436201207047026853691943516100207A
:1009AC007047704770477047704770477047704783
:1009BC00704770477047704770472DE9F84F0546F0
:1009CC0003685C69D3F804809F68D3F80CB0D3F843
:1009DC0010A0D3F8189014F001063BD017F00106C4
:1009EC0016D001229A6017F0020F08D117F0040FED
:1009FC000CD117F0080606D04FF4805608E0FFF72C
:100A0C00D0FF002604E0FFF7CFFF01E04FF40066B3
:100A1C0017F4807F0DD02B684FF480729A6017F416
:100A2C00007F40F0868017F4806F00F0868046F4DB
:100A3C00005617F4803F0DD02B684FF480329A602B
:100A4C0017F4003F40F0838017F4802F00F0838070
:100A5C0046F4004614F0080F07D01BF0100F04D01A
:100A6C0046F400762B681022DA6014F0040F02D0E2
:100A7C001BF0080F79D114F0020F04D02B68DB683F
:100A8C0013F0030F78D114F0400F07D01AF0100FA9
:100A9C0004D046F480662B6810221A6114F0200FE3
:100AAC0002D01AF0080F6BD114F0100F04D02B6881
:100ABC001B6913F0030F6AD114F4003F02D018F035
:100ACC00100F68D114F4803F02D018F0080F69D1D0
:100ADC0014F4004F7AD018F0040F74D014F4807F03
:100AEC0004D019F0010F01D046F0010614F4007F78
:100AFC0004D019F0020F01D046F0020614F4806FF6
:100B0C0004D019F0040F01D046F0040614F4006F61
:100B1C0059D019F0700956D0B9F1400F65D058D89A
:100B2C00B9F1200F5ED0B9F1300F42D146F020065A
:100B3C0044E02846FFF736FF7BE717F4006F02D03E
:100B4C0046F4804675E72846FFF72FFF71E72846E5
:100B5C00FFF729FF7EE717F4002F02D046F480360A
:100B6C0078E72846FFF722FF74E72B680822DA6043
:100B7C002846FFF71CFF7EE72846FFF749FC82E773
:100B8C002B6808221A612846FFF713FF8CE72846CA
:100B9C00FFF70EFF90E72B6810225A602846FFF7EC
:100BAC0009FF8FE72B6808225A602846FFF703FFDE
:100BBC008EE7B9F1100F01D146F008062A68936947
:100BCC0023F0700393612B6804225A609EB9BDE830
:100BDC00F88FB9F1500F0BD0B9F1600FEED146F48C
:100BEC008076EBE746F01006E8E746F04006E5E7CE
:100BFC0046F08006E2E76B6A1E436E622846FFF7FA
:100C0C00DBFEE4E710B504460E4B18784FF47A730C
:100C1C00B3FBF0F30C4A1068B0FBF3F000F0D4FC1B
:100C2C0068B90F2C01D901200AE0002221464FF0AF
:100C3C00FF3000F083FC054B1C60002000E001201D
:100C4C0010BD00BF000000200800002004000020A0
:100C5C0008B5074A136843F010031360032000F033
:100C6C005BFC0020FFF7CEFFFFF70CFB002008BD5C
:100C7C0000200240034A1168034B1B780B4413609D
:100C8C00704700BF9800002000000020014B18683E
:100C9C00704700BF9800002038B50446FFF7F6FFF8
:100CAC000546B4F1FF3F02D0044B1B781C44FFF700
:100CBC00EDFF401BA042FAD338BD00BF000000205E
:100CCC0082B0084B1B68084AA2FB03235B0A00FB9B
:100CDC0003F3019300BF019B5A1E0192002BF9D123
:100CEC0002B0704708000020D34D6210002800F0BD
:100CFC00F18170B582B00446036813F0010F2CD05B
:100D0C00994B5B6803F00C03042B1DD0964B5B686E
:100D1C0003F00C03082B12D06368B3F5803F41D06D
:100D2C00002B55D103F1804303F504331A6822F4E8
:100D3C0080321A601A6822F480221A6037E08A4BDB
:100D4C005B6813F4803FE7D0874B1B6813F4003FBC
:100D5C0003D06368002B00F0BF81236813F0020FEF
:100D6C0075D0814B5B6813F00C0F5FD07E4B5B68CA
:100D7C0003F00C03082B54D02369002B00F08A805D
:100D8C007A4B01221A60FFF781FF0546764B1B68F0
:100D9C0013F0020F75D1FFF779FF401B0228F5D92C
:100DAC0003209EE1704A136843F480331360636838
:100DBC0043B3FFF76BFF05466B4B1B6813F4003F07
:100DCC00CBD1FFF763FF401B6428F5D9032088E1E2
:100DDC00B3F5A02F09D0644B1A6822F480321A6044
:100DEC001A6822F480221A60E1E703F18043A3F52C
:100DFC003C331A6842F480221A601A6842F480323A
:100E0C001A60D4E7FFF742FF0546574B1B6813F4F3
:100E1C00003FA2D0FFF73AFF401B6428F5D903200E
:100E2C005FE1514B5B6813F4803FA5D14E4B1B68BF
:100E3C0013F0020F03D02369012B40F04F814A4A73
:100E4C00136823F0F803616943EAC1031360236854
:100E5C0013F0080F33D0A369002B5CD0434B012255
:100E6C00C3F88024FFF712FF05463F4B5B6A13F073
:100E7C00020F21D1FFF70AFF401B0228F5D90320EE
:100E8C002FE1394A136823F0F803616943EAC1037F
:100E9C001360DCE7354B00221A60FFF7F7FE0546BE
:100EAC00314B1B6813F0020FD1D0FFF7EFFE401B44
:100EBC000228F5D9032014E10120FFF701FF236874
:100ECC0013F0040F00F09680274BDB6913F0805F62
:100EDC0034D1254BDA6942F08052DA61DB6903F0D8
:100EEC0080530193019B0125214B1B6813F4807FD8
:100EFC0026D0E368012B3DD0002B53D103F1804366
:100F0C0003F504331A6A22F001021A621A6A22F0FB
:100F1C0004021A6233E0154B0022C3F88024FFF759
:100F2C00B5FE0546104B5B6A13F0020FC7D0FFF7F6
:100F3C00ADFE401B0228F5D90320D2E00025D3E7F3
:100F4C000B4A136843F480731360FFF79FFE064649
:100F5C00074B1B6813F4807FCBD1FFF797FE801BE8
:100F6C006428F5D90320BCE0001002400000424286
:100F7C00007000405F4A136A43F001031362E36898
:100F8C0033B3FFF783FE06465A4B1B6A13F0020F6E
:100F9C002FD1FFF77BFE801B41F288339842F3D9A7
:100FAC0003209EE0052B09D0524B1A6A22F0010255
:100FBC001A621A6A22F004021A62E0E74D4B1A6AAE
:100FCC0042F004021A621A6A42F001021A62D6E76F
:100FDC00FFF75CFE0646474B1B6A13F0020F08D066
:100FEC00FFF754FE801B41F288339842F3D903205B
:100FFC0077E0E5B9E369002B72D03E4A526802F003
:10100C000C02082A56D0022B17D03B4B00221A6632
:10101C00FFF73CFE0446374B1B6813F0007F47D0AC
:10102C00FFF734FE001B0228F5D9032059E0314AA2
:10103C00D36923F08053D361DCE72F4B00221A666F
:10104C00FFF724FE05462B4B1B6813F0007F06D0E0
:10105C00FFF71CFE401B0228F5D9032041E0236A50
:10106C00B3F5803F1AD023494B6823F47413226ADA
:10107C00606A024313434B601F4B01221A66FFF751
:10108C0005FE04461B4B1B6813F0007F0ED1FFF7C7
:10109C00FDFD001B0228F5D9032022E0154A5368F8
:1010AC0023F40033A1680B435360DCE7002018E005
:1010BC00002016E0012B16D00E4B5B6803F4803138
:1010CC00226A914211D103F47013626A93420ED1D9
:1010DC00002006E001207047012002E0012000E022
:1010EC00002002B070BD0120FBE70120F9E70120D0
:1010FC00F7E700BF001002400000424286B0174BD9
:10110C000FCB0DF1180C0CE90F0040F20123ADF8D8
:10111C000430134B5B6803F00C02082A02D0114810
:10112C0006B07047C3F3834218326A4412F8100CAD
:10113C0013F4803F0DD00A4B5B68C3F34043183364
:10114C006B4413F8143C074A02FB00F0B0FBF3F0BD
:10115C00E6E7054B03FB00F0E2E700BFBC16000816
:10116C000010024000127A0000093D00002800F037
:10117C00A08070B50D460446524B1B6803F0070364
:10118C008B420BD24F4A136823F007030B431360B7
:10119C00136803F007038B4240F08D80236813F033
:1011AC00020F17D013F0040F04D0474A536843F4CE
:1011BC00E0635360236813F0080F04D0424A53686D
:1011CC0043F460535360404A536823F0F003A16822
:1011DC000B435360236813F0010F31D06368012B6C
:1011EC0020D0022B25D0384A126812F0020F64D09E
:1011FC0035494A6822F0030213434B60FFF746FD62
:10120C000646314B5B6803F00C036268B3EB820F4C
:10121C0016D0FFF73BFD801B41F288339842F0D982
:10122C00032045E0284A126812F4003FE0D1012067
:10123C003EE0254A126812F0007FD9D1012037E038
:10124C00204B1B6803F00703AB420AD91D4A1368F5
:10125C0023F007032B431360136803F00703AB421F
:10126C002DD1236813F0040F06D0174A536823F4CA
:10127C00E063E1680B435360236813F0080F07D059
:10128C00114A536823F46053216943EAC103536044
:10129C00FFF734FF0C4B5B68C3F303130B4AD35CAF
:1012AC00D8400B4B18600B4B1868FFF7ABFC0020B9
:1012BC0070BD012070470120FAE70120F8E70120FA
:1012CC00F6E700BF0020024000100240D0160008D4
:1012DC00080000200400002070B582B00024A44651
:1012EC008BE07F4DAA4210D007D97E4DAA420CD07C
:1012FC0005F58035AA4208D015E0A5F58015AA425F
:10130C0003D005F57025AA4209D18A68002A00F09D
:10131C00BF80012A00F0B7804361082403E0A5F5E3
:10132C008015AA42F1D0BEF1FF0F00F2B380064641
:10133C00BEF1FF0F00F2B0804FEA8C0233680F252C
:10134C00954023EA050304FA02F2134333604B6819
:10135C0013F0805F4FD0644B9A6942F001029A619E
:10136C009B6903F001030193019B4FEA9C02951CBE
:10137C005E4B53F825600CF003039D000F23AB402C
:10138C0026EA03065A4B984200F08C8003F58063E2
:10139C00984200F0898003F58063984200F08080C9
:1013AC000323AB4033430232504D45F822304B6897
:1013BC0013F4803F7AD04F4A136843EA0E0313604C
:1013CC004B6813F4003F77D04A4A536843EA0E0344
:1013DC0053604B6813F4801F74D0464A936843EAF9
:1013EC000E0393604B6813F4001F71D0414AD3680D
:1013FC0043EA0E03D3600CF1010C0A6832FA0CF3C9
:10140C006CD0012303FA0CF302EA030E33EA020256
:10141C00F1D14A68122A3FF664AF122A83D801A58B
:10142C0055F822F0171300087D14000887140008E3
:10143C009914000833130008331300083313000801
:10144C003313000833130008331300083313000858
:10145C003313000833130008331300083313000848
:10146C003313000833130008811400088D1400088E
:10147C00CC6858E7CC68043455E7CC68083452E79C
:10148C00CC680C344FE7036108244CE700244AE78E
:10149C00042448E7061D4BE7ACF1080292004DE727
:1014AC0002237EE700237CE701237AE7114A1368C5
:1014BC0023EA0E03136083E70E4A536823EA0E03F4
:1014CC00536086E70B4A936823EA0E03936089E71F
:1014DC00084AD36823EA0E03D3608CE702B070BDD0
:1014EC0000002210000031100010024000000140EA
:1014FC0000080140000401400AB101617047090471
:10150C0001617047C36801EA030221EA030141EA61
:10151C000241016170470000074AD36823F4E0637D
:10152C001B041B0C000200F4E060034343F0BF6398
:10153C0043F40033D360704700ED00E000B5194B65
:10154C00DB68C3F30223C3F1070CBCF1040F28BF03
:10155C004FF0040C03F1040EBEF1060F18D9033B37
:10156C004FF0FF3E0EFA0CFC21EA0C0199400EFAEA
:10157C0003F322EA0303194300280BDB0901C9B268
:10158C0000F1604000F5614080F800135DF804FB49
:10159C000023E5E700F00F000901C9B2024B195412
:1015AC00F4E700BF00ED00E014ED00E0002807DBDD
:1015BC0000F01F02400901239340024A42F82030F8
:1015CC00704700BF00E100E00138B0F1807F0BD222
:1015DC004FF0E0235861054AF02182F823100020D7
:1015EC00986107221A6170470120704700ED00E0F6
:1015FC00704700000C480D490D4A002302E0D458F6
:10160C00C4500433C4188C42F9D30A4A0A4C002340
:10161C0001E013600432A242FBD3FFF7E9FF00F0B4
:10162C000FF8FEF7B7FD7047000000200C000020FB
:10163C00E81600080C0000209C000020FEE70000CB
:10164C0070B500260C4D0D4C641BA410A64209D19C
:10165C0000F022F800260A4D0A4C641BA410A64286
:10166C0005D170BD55F8043B98470136EEE755F8A7
:10167C00043B98470136F2E7E0160008E016000834
:10168C00E0160008E416000803460244934200D119
:10169C00704703F8011BF9E7F8B500BFF8BC08BCAC
:1016AC009E467047F8B500BFF8BC08BC9E46704714
:1016BC0002030405060708090A0B0C0D0E0F101087
:1016CC000000000000000000000000000102030404
:0416DC0006070809EC
:0416E00031010008CC
:0416E4000D010008EC
:0C16E80001000000100000000024F400CD
:0400000508001601D8
:00000001FF
