:020000040800F2
:100000000028002041410008BD020008BF0200088E
:10001000C1020008C3020008C50200080000000079
:10002000000000000000000000000000413E000849
:10003000C702000800000000E13E0008253F00085C
:100040008941000889410008894100088941000868
:100050008941000889410008894100088941000858
:100060008941000889410008894100088941000848
:100070008941000889410008894100088941000838
:100080008941000889410008894100088941000828
:10009000C9020008D9020008894100088941000806
:1000A00089410008E90200088941000889410008E7
:1000B000F902000889410008000000008941000899
:1000C000894100080000000000000000894100088C
:1000D000000000008941000889410008000000007C
:1000E000894100088941000889410008000000009A
:1000F0000000000000000000000000000000000000
:0C01000000000000000000005FF808F1A3
:1001100010B5054C237833B9044B13B10448AFF341
:1001200000800123237010BD340000200000000077
:100130000042000808B5034B1BB103490348AFF365
:10014000008008BD000000003800002000420008C8
:1001500030B591B02822002106A804F049F8002407
:1001600001940294039404940594012206924FF49E
:10017000803307930A9202250D950E934FF4E013F6
:100180000F9306A801F046FB0F23019302950394F9
:100190004FF4806304930594294601A801F07AFD89
:1001A00011B030BD00B585B001F0FAFAFFF7D0FF0D
:1001B00000F048F800F0D2F803F06CFF00F054F9BA
:1001C00000F06CF902F020FA03F0BDFC0823039361
:1001D000002305E003F110026A4402F80C3C0133ED
:1001E000072BF7D902E00133132BFCDD0023FBE7DB
:1001F00010B5044602680F4B9A4204D02368B3F14D
:10020000804F03D010BD01F0DDFAF7E70A4B1B78F1
:1002100053B10A4B1B78DBB2012B02D0074B0122F2
:100220001A7000F041FDEDE7034A13780133DBB2A9
:100230001370E7E7002C014050000020250000204B
:100240007047000030B589B00024049405940694EA
:100250000794184B9A6942F010029A619A6902F069
:1002600010020192019A9A6942F020029A619A69F9
:1002700002F020020292029A9A6942F004029A6104
:100280009B6903F004030393039B0B4D01224FF47E
:100290000051284601F0F8FE4FF400530493012367
:1002A000059306940223079304A9284601F0DCFD78
:1002B00009B030BD00100240001001407047FEE759
:1002C000FEE7FEE7FEE7704708B5024801F042F995
:1002D00008BD00BF7800002008B5024801F03AF9D7
:1002E00008BD00BF7800002008B5024801F0AFFF4C
:1002F00008BD00BF5009002008B5024801F0A7FF63
:1003000008BD00BFE81E002000B583B0114B9A69FC
:1003100042F001029A619A6902F001020092009A89
:10032000DA6942F08052DA61DB6903F080530193AD
:10033000019B00220F216FF0010001F0C7FE064A69
:10034000536823F0E06343F00073536003B05DF83B
:1003500004FB00BF001002400000014008B50D483A
:100360000D4B03600923436000238360C3604FF497
:10037000003202614FF44012426103764376837685
:10038000C3760377437700F02BFE00B908BDFFF773
:1003900057FFFBE7780000200064004010B586B0EE
:1003A0000023029303930493059302681E4B9A4221
:1003B00001D006B010BD03F5D633DA6942F0007201
:1003C000DA61DA6902F000720092009A9A6942F0EA
:1003D00004029A619B6903F004030193019B4FF4AB
:1003E00000630293114C02A9204601F03DFD4FF439
:1003F00080530293022303930323059302A920460B
:1004000001F032FD00220621142001F05FFE1420CD
:1004100001F094FE00220721152001F057FE15205F
:1004200001F08CFEC5E700BF0064004000080140F9
:1004300000B58BB000230593069301220792009329
:10044000019302930393049308920E230993694640
:10045000044800F06BFE10B90BB05DF804FBFFF729
:10046000EFFEF9E77800002010B5FFF777FFFFF700
:10047000DFFF074C204600F0DFFE0221204601F09E
:100480004BF8044800F0BAF8034800F0E5F810BD56
:100490007800002009060008D10E0008084A40F242
:1004A000213353600023D360082151611361137617
:1004B00003E0034A1A4413770133072BF9DD704731
:1004C0005400002010B588B00C460023082B22D819
:1004D00003EB430C124A52F82C20824201D0013324
:1004E000F4E70F4A02EB8C035B680293002303934B
:1004F00004930593082306930A4800F049FF002857
:10050000FAD001AB224602A9064800F0C3FE20B192
:10051000FFF796FE01E0FFF793FE08B010BD00BFA5
:10052000C04200087800002038B5002424E01F4AAB
:1005300055580A44147A01E04FF0FF35B5F1FF3FFA
:1005400017D04FF400511A4801F0A4FD012C10D02F
:10055000022C03D04CB1FFF773FE0AE0154B1B6869
:100560003BB115492846984703E013492846FFF751
:10057000A9FF0A2002F042FF104B1B785BB2002B50
:10058000F7D000230D4A13700D4A11690A4A916091
:10059000082BD1D80A4A106803EB43029100034AA2
:1005A0000A4452689042C2D00133F1E75442000835
:1005B00000100140AC000020A000002051000020ED
:1005C000B000002008B50268084B1B689A4203D0AF
:1005D000074B01221A7008BD064B074A002100F0A4
:1005E000F0FE0028F4D0FFF72BFEF1E778000020A2
:1005F00051000020A0000020B000002008B1014AF6
:1006000010607047AC000020044B1960044B186068
:10061000044B01221A700020704700BFF80200202E
:10062000F4020020D0000020044B1960044B186035
:10063000044B01221A700020704700BF0003002005
:10064000FC020020D1000020034600093F2B00D807
:1006500070470420FCE7000008B1014A10607047B1
:10066000CC00002038B5D1F80032114CA360114DF8
:100670002A68D21A2A6003F00F022270002207E0D3
:1006800002F1010C11F802E0094A02F80CE062469E
:1006900003F1010C9445F3D8023303E0044A00212E
:1006A000D1540133072BF9D90149FFF70BFF38BDAE
:1006B000E80200201403002010B584B0D1F80042F5
:1006C000C4F3032343F010038DF804308DF8054084
:1006D000022309E09A1E11F802C003F110026A44D5
:1006E00002F80CCC0133DBB2072BF3D9063C034BE9
:1006F0001C6001A9FFF7E6FE04B010BD1403002042
:1007000038B51E4B1B68072B12D81C4B1C681C4DA0
:10071000AC601C4A137843F020032B701378C3EBB2
:10072000C303194A12681344184A136000230BE0EC
:100730000724ECE7154A12681A44013311F802C085
:100740000F4A02F803C0DBB2A342F3D30D4A137879
:100750000133DBB213701378DBB20F2B06D90B4BCE
:100760001A68094B1A60074B00221A70034A136873
:100770001C1B14600249FFF7A5FE38BD14030020BE
:10078000E8020020D8020020180300200400002006
:1007900008B50D4B30221A700C4A116859700021AF
:1007A000997012680A4B1A60032304E0064A00217C
:1007B000D1540133DBB2072BF8D9064B01221A7052
:1007C0000149FFF77FFE08BDE8020020000000207D
:1007D00008030020D80200200B7849780A4A1160EB
:1007E000302B02D0312B0AD070470123074A1370F7
:1007F000074A1168074A1160074A13707047034B94
:1008000002221A70704700BF0C030020060300206C
:100810000400002018030020D802002000B5124B6D
:10082000B3F800C01FFA8CFC10E00F4A13889BB28B
:10083000A3EB0C03118889B210F803E00B4B03F80B
:1008400001E013889BB201339BB21380064B1B88D7
:100850009BB282680CEB02018B42E6D304490B6821
:100860009A1A0A605DF804FB04030020D4000020FB
:100870001003002010B50C7804F00F040A4B1C6024
:100880001A680A4BC3F80022002306E05A1C11F82C
:1008900002C0074800F803C01346A342F6D3044839
:1008A0008460FFF7BBFF10BD10030020D4000020C0
:1008B000DC02002008B50B781B0203F470634A7851
:1008C00013430B4A136012680A4BC3F800220A4B09
:1008D00006229A60002305E09A1C885C064AD054E0
:1008E0000133DBB2072BF7D90348FFF797FF08BDA9
:1008F00010030020D4000020DC02002010B5194AAB
:100900001368013B1360184B1B68072B0CD8164B60
:100910001C68164B9C60164B1A78D2B20B7803F009
:100920000F039A421AD010BD0724F2E75A1C11F89F
:1009300002C00E4800F803C0D3B2A342F6D30C4B5A
:100940001B78DBB20E2B0BD8094B1B780133DBB2C3
:10095000074A13700548FFF761FFE4E70023ECE75F
:100960000023F5E70803002010030020DC0200202C
:10097000D802002070B574E0614B18682946FFF773
:1009800079FF032C6AD05F4B1B68002B66D15E4B4E
:100990001B68002B62D05D4A00211180584A106804
:1009A0005B4998475AE0564E30682946FFF782FF68
:1009B000584B02221A703068574B1968FFF734FE03
:1009C000DFE74F4B18682946FFF798FF534B1B682A
:1009D000002BD6D14B4B1B68002BD2D04D4B0222A3
:1009E0001A70474B18684C4B1968FFF71DFEC8E793
:1009F000434B18682946FFF7EFFEC2E7484B1B78C8
:100A00005BB2002B2AD0474B1B689BB9414B1B782C
:100A1000002B43D1444A1268D2F8000241490860D1
:100A200008683B49C1F80002D2F80022072A02D91F
:100A3000012300E004233B4A1268002A30D1354AE2
:100A40001278022A2CD0374B1B683BB9314A1370FD
:100A5000364A4FF0FF311160314A1370642002F0C2
:100A6000CDFC334B1B785BB2002BC7D0304B002240
:100A70001A70294B1D682878FFF7E6FD0446032805
:100A80003FF67FAF01A353F820F000BF79090008BB
:100A9000A7090008C3090008F10900080423CAE7F0
:100AA0001C4A1278012A15D0022A22D0032BCAD858
:100AB000DFE803F00209101F1E4B18681A4B196873
:100AC000FFF7D0FDBFE71B4B1868174B1968FFF7FE
:100AD000F3FDB8E7184B1B68002BB4D0164A136817
:100AE000013B1360134B18680F4B1968FFF708FEA2
:100AF000A9E7104B18680C4B1968FFF749FEA2E7ED
:100B0000F402002010030020CC0000200403002089
:100B1000D400002006030020F80200200803002073
:100B2000D100002014030020000300200400002056
:100B3000D0000020FC0200200C03002010B5047936
:100B400090F805E27444E4B203784033174A137016
:100B500090F90130B3F1FF3F10D00134E4B253708B
:100B60000222134615E0531E034499780F4B995403
:100B70000132D2B203799342F5D2F2E70122F9E7CA
:100B8000991A014491F805C0084901F803C00133DE
:100B9000DBB20EEB02018B42F2DB01340349C1F8F8
:100BA00000420820FFF740FD10BD00BF34050020C3
:100BB00008B5254B2E221A7090F901209A7090F9F1
:100BC0000210D97002211971002183F80512FF214A
:100BD000597062F07F029A704378F12B08D0F12BA4
:100BE00010D0ED2B1ED0194B1B78012B28D008BD3F
:100BF00082788C2AF3D18279C37943EA0223144A9A
:100C00001360F0E78278862AEBD18279C3791B04DE
:100C100043EA0263027A43EA0223427A13430D4A0B
:100C20001360E0E78378A02BDDD1002305E09A1D57
:100C3000815C094AD1540133DBB2102BF7D9D2E7DA
:100C40000148FFF77BFFD2E73807002010000020A3
:100C50000C000020080000201400002008B5064BFE
:100C60007F221A70587099700322C3F80022194627
:100C70000820FFF7D9FC08BD3405002008B5084B53
:100C80003E221A7000221A7183F805225A70054B11
:100C90001B78012B00D008BD0148FFF74FFFFAE792
:100CA000380700201000002010B5064C204601F047
:100CB000B1FA4FF0804300225A62204601F07AFADE
:100CC00010BD00BFE81E002008B5024801F072FA0E
:100CD00008BD00BFE81E002008B54378012B01D0F5
:100CE000032B1AD10F4A137001780F4A11705370F9
:100CF0000023137182F805324378032B04D00B4B89
:100D00001B78012B05D008BDFFF7CEFFFFF7DCFFF6
:100D1000F5E70548FFF712FFF5E712210078FFF726
:100D20009DFFF0E7250000201C030020100000209C
:100D300008B500F053FD014B186008BD2C050020DC
:100D40000520704708B5FFF7FBFF024B1B681844EE
:100D500008BD00BF2C05002038B5437803F07F03A1
:100D60004370012B0CD00446022B24D012210078B2
:100D7000FFF774FF01242448FFF7E0FE204638BD4A
:100D8000FFF7D6FF204A2723137001235370002357
:100D90001371042182F8051209E01C4A1168C3F19D
:100DA0000302D200D140184A1A4451710133032B77
:100DB000F3DD0024DFE7437985792D0445EA0365F7
:100DC000C37945EA0325037A1D43FFF7BBFFA84219
:100DD0000ED101230E4A13700E4A137022780A4B6B
:100DE0001A7002225A7000241C7183F80542C2E76F
:100DF0000023074A1370074A137035212078FFF744
:100E00002DFF0124BAE700BF380700202C05002081
:100E1000280500203105002008B5294BFF225A7013
:100E200022221A7002221A71437843F08003437021
:100E3000F12B0BD0F12B1CD0ED2B02D18378A02B02
:100E400027D031212220FFF709FF08BD82788C2AA4
:100E5000F0D11B4883708C23C3701A4A13681B0A95
:100E6000437113688371022380F80532FFF766FE31
:100E7000EBE78278862ADFD1114883708623C3701E
:100E8000114B1B784371012380F80532FFF756FEA2
:100E9000DBE70B4BED229A70A022DA70002306E00C
:100EA0000A4AD15C064A1A4451710133DBB2102B55
:100EB000F6D90348112380F80532FFF73FFEC4E757
:100EC000380700200C00002025000020140000201E
:100ED00010B50C463E4B19600878102807D0222820
:100EE00005D02E2803D0272801D03E281ED1FFF799
:100EF000DBFE384B1B78DBB2012B14D12078102895
:100F000018D022281AD027281CD02E281FD02E28EF
:100F10002CD02E2837D03E283ED02F4B1B78DBB26A
:100F2000012B3CD010BDFFF7CFFEE7E71121FFF703
:100F300095FEF7E7284B01221A70EEE72046FFF7EF
:100F40006BFFEFE7224B1868FFF706FFE5E7234B3F
:100F50001B78DBB2012BDAD11E4B1B78DBB2032BE3
:100F6000D5D101462046FFF723FEDBE71B4B1B785C
:100F7000002BCED1174B1B78DBB2032BC9D1332109
:100F8000FFF76CFECEE7134B1B78DBB2012BC2D10F
:100F90007F21FFF763FEC5E7FFF770FEC2E76378C6
:100FA00003F07F0363702388B3F5887F07D0B3F520
:100FB000447F08D012212078FFF750FEB2E7204688
:100FC000FFF78AFEAEE72046FFF786FEAAE700BFDE
:100FD00024050020250000203005002031050020D8
:100FE000002800F0A18038B5044690F82030D3B135
:100FF0002268136843F00103136000F0EFFB05461D
:1010000023685A6812F0010F10D100F0E7FB401B73
:101010000A28F5D9636A43F400336362052384F830
:101020002030012038BDFFF7B9F9E1E71A6822F056
:1010300002021A6000F0D2FB054623685A6812F0DB
:10104000020F0DD000F0CAFB401B0A28F5D9636AD5
:1010500043F400336362052384F820300120E1E784
:10106000227E012A3DD01A6822F080021A60637E37
:10107000012B3BD02268136823F040031360A37E4A
:10108000012B39D02268136823F020031360E37E1C
:10109000012B37D02268136843F010031360237FBD
:1010A000012B35D02268136823F008031360637F97
:1010B000012B33D02268136823F004031360A36864
:1010C000E268134322691343626913436268013A79
:1010D00021681343CB6100206062012384F8203033
:1010E000A0E71A6842F080021A60C0E7226813681D
:1010F00043F040031360C2E72268136843F0200303
:101100001360C4E72268136823F010031360C6E776
:101110002268136843F008031360C8E72268136865
:1011200043F004031360CAE701207047026890F897
:101130002030013BDBB2012B05D9436A43F4802305
:1011400043620120704710B5D2F8003243F001032A
:10115000C2F800324B6903F01F03012000FA03F3C9
:10116000D2F81C026FEA030C20EA0300C2F81C024A
:10117000C869C0B9D2F80C020CEA0000C2F80C022F
:101180008C884869D1F80CE044EA0E44483042F8B3
:1011900030400C884869D1F808E044EA0E444830F1
:1011A00002EBC0004460C86901281AD0886988BB76
:1011B000D2F804020CEA0000C2F80402086978BB05
:1011C000D2F814020CEA0000C2F81402096A0129DC
:1011D0002CD0D2F8003223F00103C2F800320020F4
:1011E00010BDD2F80C021843C2F80C028C88486972
:1011F000D1F800E044EA0E44483042F830408C898F
:101200004869D1F808E044EA0E44483002EBC000D7
:101210004460CBE7D2F804021843C2F80402CDE7D9
:10122000D2F814021843C2F81402CFE7D2F81C1205
:101230000B43C2F81C32CCE770B5044690F820503E
:10124000EDB2012D06D0436A43F400234362012529
:10125000284670BD022380F820300268136823F00E
:101260000103136000F0BAFA064623685B6813F0C6
:10127000010F0CD000F0B2FA831B0A2BF5D9636A78
:1012800043F400336362052384F82030E0E700254F
:101290006562DDE730B590F820C00468A4680CF101
:1012A000FF3C5FFA8CFCBCF1010F6BD814F0E05FDF
:1012B00062D0C4F3016CBCF1020F05D9436A43F458
:1012C00000034362012062E0012404FA0CF41C6074
:1012D0008B68002B3DD10D68CB68046843EA455507
:1012E0000CF118031B01E55003680C690CF1180E92
:1012F00003EB0E135C600B7D012B35D0D179937914
:101300001B0443EA0163517943EA0123147901681C
:10131000234301EB0C11C1F88C31D17893781B0475
:1013200043EA0163517843EA0123117802680B43D1
:1013300002EB0C12C2F8883102680CF1180C4FEA6B
:101340000C1C52F80C3043F0010342F80C30002022
:101350001DE04C6843EAC403CC6823430CF1180435
:10136000240105682B51BFE7036803EB0E1359688E
:1013700041F480715960C1E7436A43F4001343624A
:10138000012004E0436A43F480234362012030BD1E
:1013900090F82030013BDBB2012B01D900207047CF
:1013A0000368986810F0806000D001209A6812F0FD
:1013B000006F00D001309B6813F0805FEFD00130E8
:1013C000704790F820C00CF1FF3C5FFA8CFCBCF138
:1013D000010F00F29B8010B451B90468E46814F066
:1013E000030F10D1436A43F40013436201207BE0F2
:1013F0000468246914F0030F05D1436A43F4001311
:101400004362012070E001F11B042401D0F800C008
:101410005CF8044004F004049460002C66D101F1EF
:101420001B042401D0F800C05CF80440640D146073
:10143000046801F11B0C4FEA0C1C54F80C4004F03A
:101440000204D46004686444646804F00F04146106
:10145000046864446468C4F30724946104686444C1
:101460006468240C5461026802EB0112D2F8B821BE
:101470001A70026802EB0112D2F8B821C2F30722F7
:101480005A70026802EB0112D2F8B821C2F3074287
:101490009A70026802EB0112D2F8B821120EDA70CB
:1014A000026802EB0112D2F8BC211A71026802EB49
:1014B0000112D2F8BC21C2F307225A71026802EB72
:1014C0000112D2F8BC21C2F307429A71026802EB02
:1014D0000112D2F8BC21120EDA7189B90268D36800
:1014E00043F02003D360002010BC704701F11B04BF
:1014F0002401D0F800C05CF80440E408546097E789
:101500000268136943F020031361ECE7436A43F474
:10151000802343620120704790F82030013BDBB20A
:10152000012B05D9436A43F48023436201207047AD
:101530000268536919435161002070477047704732
:1015400070477047704770477047704770477047E3
:10155000704770472DE9F84F054603685C69D3F87A
:1015600004809F68D3F80CB0D3F810A0D3F818907B
:1015700014F001063BD017F0010616D001229A6044
:1015800017F0020F08D117F0040F0CD117F008065E
:1015900006D04FF4805608E0FFF7D0FF002604E0A5
:1015A000FFF7CFFF01E04FF4006617F4807F0DD006
:1015B0002B684FF480729A6017F4007F40F08680A9
:1015C00017F4806F00F0868046F4005617F4803FD1
:1015D0000DD02B684FF480329A6017F4003F40F032
:1015E000838017F4802F00F0838046F4004614F0C7
:1015F000080F07D01BF0100F04D046F400762B68BC
:101600001022DA6014F0040F02D01BF0080F79D119
:1016100014F0020F04D02B68DB6813F0030F78D1AD
:1016200014F0400F07D01AF0100F04D046F4806673
:101630002B6810221A6114F0200F02D01AF0080F44
:101640006BD114F0100F04D02B681B6913F0030F3B
:101650006AD114F4003F02D018F0100F68D114F4CE
:10166000803F02D018F0080F69D114F4004F7AD0EF
:1016700018F0040F74D014F4807F04D019F0010F17
:1016800001D046F0010614F4007F04D019F0020FD7
:1016900001D046F0020614F4806F04D019F0040F54
:1016A00001D046F0040614F4006F59D019F0700907
:1016B00056D0B9F1400F65D058D8B9F1200F5ED09F
:1016C000B9F1300F42D146F0200644E02846FFF73A
:1016D00036FF7BE717F4006F02D046F4804675E7CB
:1016E0002846FFF72FFF71E72846FFF729FF7EE71F
:1016F00017F4002F02D046F4803678E72846FFF72B
:1017000022FF74E72B680822DA602846FFF71CFFE7
:101710007EE72846FEF756FF82E72B6808221A610B
:101720002846FFF713FF8CE72846FFF70EFF90E7E8
:101730002B6810225A602846FFF709FF8FE72B68B5
:1017400008225A602846FFF703FF8EE7B9F1100F11
:1017500001D146F008062A68936923F0700393616B
:101760002B6804225A609EB9BDE8F88FB9F1500F7A
:101770000BD0B9F1600FEED146F48076EBE746F07E
:101780001006E8E746F04006E5E746F08006E2E7A7
:101790006B6A1E436E622846FFF7DBFEE4E700003B
:1017A00008B5074A136843F010031360032000F0E4
:1017B0007BFC002000F06AFFFEF7A6FD002008BDBC
:1017C00000200240034A1168034B1B780B4413604E
:1017D000704700BF4009002026000020014B186818
:1017E000704700BF4009002082B0084B1B68084AC0
:1017F000A2FB03235B0A00FB03F3019300BF019BE1
:101800005A1E0192002BF9D102B070472C00002023
:10181000D34D6210002800F0F18170B582B004460B
:10182000036813F0010F2CD0994B5B6803F00C0395
:10183000042B1DD0964B5B6803F00C03082B12D0D1
:101840006368B3F5803F41D0002B55D103F180434D
:1018500003F504331A6822F480321A601A6822F4FD
:1018600080221A6037E08A4B5B6813F4803FE7D030
:10187000874B1B6813F4003F03D06368002B00F014
:10188000BF81236813F0020F75D0814B5B6813F0A2
:101890000C0F5FD07E4B5B6803F00C03082B54D019
:1018A0002369002B00F08A807A4B01221A60FFF72F
:1018B00095FF0546764B1B6813F0020F75D1FFF7B5
:1018C0008DFF401B0228F5D903209EE1704A136862
:1018D00043F480331360636843B3FFF77FFF05462B
:1018E0006B4B1B6813F4003FCBD1FFF777FF401B16
:1018F0006428F5D9032088E1B3F5A02F09D0644B03
:101900001A6822F480321A601A6822F480221A605F
:10191000E1E703F18043A3F53C331A6842F48022E7
:101920001A601A6842F480321A60D4E7FFF756FF53
:101930000546574B1B6813F4003FA2D0FFF74EFF3C
:10194000401B6428F5D903205FE1514B5B6813F419
:10195000803FA5D14E4B1B6813F0020F03D02369C3
:10196000012B40F04F814A4A136823F0F803616964
:1019700043EAC1031360236813F0080F33D0A3694F
:10198000002B5CD0434B0122C3F88024FFF726FFD5
:1019900005463F4B5B6A13F0020F21D1FFF71EFF94
:1019A000401B0228F5D903202FE1394A136823F0A0
:1019B000F803616943EAC1031360DCE7354B002299
:1019C0001A60FFF70BFF0546314B1B6813F0020F3F
:1019D000D1D0FFF703FF401B0228F5D9032014E103
:1019E0000120FFF701FF236813F0040F00F0968039
:1019F000274BDB6913F0805F34D1254BDA6942F065
:101A00008052DA61DB6903F080530193019B012569
:101A1000214B1B6813F4807F26D0E368012B3DD057
:101A2000002B53D103F1804303F504331A6A22F0EB
:101A300001021A621A6A22F004021A6233E0154B9C
:101A40000022C3F88024FFF7C9FE0546104B5B6AED
:101A500013F0020FC7D0FFF7C1FE401B0228F5D9D3
:101A60000320D2E00025D3E70B4A136843F48073C8
:101A70001360FFF7B3FE0646074B1B6813F4807F25
:101A8000CBD1FFF7ABFE801B6428F5D90320BCE067
:101A90000010024000004242007000405F4A136A9A
:101AA00043F001031362E36833B3FFF797FE064682
:101AB0005A4B1B6A13F0020F2FD1FFF78FFE801BCA
:101AC00041F288339842F3D903209EE0052B09D0D8
:101AD000524B1A6A22F001021A621A6A22F00402B8
:101AE0001A62E0E74D4B1A6A42F004021A621A6A5F
:101AF00042F001021A62D6E7FFF770FE0646474B36
:101B00001B6A13F0020F08D0FFF768FE801B41F23A
:101B100088339842F3D9032077E0E5B9E369002BD5
:101B200072D03E4A526802F00C02082A56D0022BAC
:101B300017D03B4B00221A66FFF750FE0446374B86
:101B40001B6813F0007F47D0FFF748FE001B0228F8
:101B5000F5D9032059E0314AD36923F08053D3618A
:101B6000DCE72F4B00221A66FFF738FE05462B4BA9
:101B70001B6813F0007F06D0FFF730FE401B0228E1
:101B8000F5D9032041E0236AB3F5803F1AD02349F9
:101B90004B6823F47413226A606A024313434B6058
:101BA0001F4B01221A66FFF719FE04461B4B1B68E8
:101BB00013F0007F0ED1FFF711FE001B0228F5D9AC
:101BC000032022E0154A536823F40033A1680B4335
:101BD0005360DCE7002018E0002016E0012B16D04F
:101BE0000E4B5B6803F48031226A914211D103F4F9
:101BF0007013626A93420ED1002006E00120704704
:101C0000012002E0012000E0002002B070BD0120B0
:101C1000FBE70120F9E70120F7E700BF00100240D1
:101C20000000424286B0174B0FCB0DF1180C0CE9A7
:101C30000F0040F20123ADF80430134B5B6803F052
:101C40000C02082A02D0114806B07047C3F3834241
:101C500018326A4412F8100C13F4803F0DD00A4B6E
:101C60005B68C3F3404318336B4413F8143C074AD2
:101C700002FB00F0B0FBF3F0E6E7054B03FB00F0DE
:101C8000E2E700BF2C4300080010024000127A0077
:101C900000093D00002800F0A08070B50D46044604
:101CA000524B1B6803F007038B420BD24F4A136859
:101CB00023F007030B431360136803F007038B4201
:101CC00040F08D80236813F0020F17D013F0040F3B
:101CD00004D0474A536843F4E0635360236813F029
:101CE000080F04D0424A536843F460535360404A9B
:101CF000536823F0F003A1680B435360236813F08B
:101D0000010F31D06368012B20D0022B25D0384A37
:101D1000126812F0020F64D035494A6822F00302BB
:101D200013434B60FFF75AFD0646314B5B6803F0E7
:101D30000C036268B3EB820F16D0FFF74FFD801BD8
:101D400041F288339842F0D9032045E0284A1268CE
:101D500012F4003FE0D101203EE0254A126812F063
:101D6000007FD9D1012037E0204B1B6803F0070327
:101D7000AB420AD91D4A136823F007032B431360B3
:101D8000136803F00703AB422DD1236813F0040F4F
:101D900006D0174A536823F4E063E1680B435360AD
:101DA000236813F0080F07D0114A536823F46053D7
:101DB000216943EAC1035360FFF734FF0C4B5B68B2
:101DC000C3F303130B4AD35CD8400B4B18600B4B87
:101DD000186800F05BFC002070BD012070470120F6
:101DE000FAE70120F8E70120F6E700BF00200240F3
:101DF00000100240404300082C0000202800002072
:101E0000014B1868704700BF2C00002008B5FFF791
:101E1000F7FF044B5B68C3F3C223034AD35CD8408B
:101E200008BD00BF00100240504300080F230360AC
:101E30000B4B5A6802F0030242605A6802F0F0024B
:101E400082605A6802F4E062C2605B68DB0803F4F7
:101E5000E0630361034B1B6803F007030B607047EB
:101E6000001002400020024070B582B00024A44659
:101E70008BE07F4DAA4210D007D97E4DAA420CD0EC
:101E800005F58035AA4208D015E0A5F58015AA42CF
:101E900003D005F57025AA4209D18A68002A00F00E
:101EA000BF80012A00F0B7804361082403E0A5F554
:101EB0008015AA42F1D0BEF1FF0F00F2B3800646B2
:101EC000BEF1FF0F00F2B0804FEA8C0233680F259D
:101ED000954023EA050304FA02F2134333604B688A
:101EE00013F0805F4FD0644B9A6942F001029A610F
:101EF0009B6903F001030193019B4FEA9C02951C2F
:101F00005E4B53F825600CF003039D000F23AB409C
:101F100026EA03065A4B984200F08C8003F5806352
:101F2000984200F0898003F58063984200F0808039
:101F30000323AB4033430232504D45F822304B6807
:101F400013F4803F7AD04F4A136843EA0E031360BC
:101F50004B6813F4003F77D04A4A536843EA0E03B4
:101F600053604B6813F4801F74D0464A936843EA69
:101F70000E0393604B6813F4001F71D0414AD3687D
:101F800043EA0E03D3600CF1010C0A6832FA0CF339
:101F90006CD0012303FA0CF302EA030E33EA0202C7
:101FA000F1D14A68122A3FF664AF122A83D801A5FC
:101FB00055F822F09B1E0008012000080B200008A5
:101FC0001D200008B71E0008B71E0008B71E000835
:101FD000B71E0008B71E0008B71E0008B71E00088D
:101FE000B71E0008B71E0008B71E0008B71E00087D
:101FF000B71E0008B71E00080520000811200008C1
:10200000CC6858E7CC68043455E7CC68083452E70C
:10201000CC680C344FE7036108244CE700244AE7FE
:10202000042448E7061D4BE7ACF1080292004DE797
:1020300002237EE700237CE701237AE7114A136835
:1020400023EA0E03136083E70E4A536823EA0E0364
:10205000536086E70B4A936823EA0E03936089E78F
:10206000084AD36823EA0E03D3608CE702B070BD40
:10207000000022100000311000100240000001405A
:1020800000080140000401400AB1016170470904E1
:1020900001617047C36801EA030221EA030141EAD2
:1020A0000241016170470000074AD36823F4E063EE
:1020B0001B041B0C000200F4E060034343F0BF6309
:1020C00043F40033D360704700ED00E000B5194BD6
:1020D000DB68C3F30223C3F1070CBCF1040F28BF74
:1020E0004FF0040C03F1040EBEF1060F18D9033BA8
:1020F0004FF0FF3E0EFA0CFC21EA0C0199400EFA5B
:1021000003F322EA0303194300280BDB0901C9B2D8
:1021100000F1604000F5614080F800135DF804FBB9
:102120000023E5E700F00F000901C9B2024B195482
:10213000F4E700BF00ED00E014ED00E0002807DB4D
:1021400000F01F02400901239340024A42F8203068
:10215000704700BF00E100E010B4036A046A24F095
:1021600001040462846924F0F00C4CEA021223F0AA
:102170000A030B438261036210BC704710B4046A07
:1021800024F0100404628469036A24F4704C4CEA5D
:10219000023223F0A00343EA01138261036210BC00
:1021A0007047836823F070030B4343F00703836099
:1021B0007047000090F83D30DBB2012B23D10223A1
:1021C00080F83D300268D36843F00103D3600368B0
:1021D0000F4A93420CD0B3F1804F09D0A2F594324C
:1021E000934205D01A6842F001021A60002070473D
:1021F0009A6802F00702062A07D01A6842F0010224
:102200001A6000207047012070470020704700BF0F
:10221000002C01400268D36823F00103D3600368F7
:10222000196A41F21112114208D1196A40F244426E
:10223000114203D11A6822F001021A60012380F8CA
:102240003D3000207047704770477047704710B5A9
:10225000044603681A6912F0020F11D0DA6812F00E
:10226000020F0DD06FF002021A6101230377036899
:102270009B6913F0030F70D0FFF7E6FF002323776D
:1022800023681A6912F0040F12D0DA6812F0040FF2
:102290000ED06FF004021A610223237723689B6932
:1022A00013F4407F5FD02046FFF7CEFF0023237753
:1022B00023681A6912F0080F12D0DA6812F0080FBA
:1022C0000ED06FF008021A61042323772368DB69BC
:1022D00013F0030F4ED02046FFF7B6FF00232377FD
:1022E00023681A6912F0100F12D0DA6812F0100F7A
:1022F0000ED06FF010021A61082323772368DB6980
:1023000013F4407F3DD02046FFF79EFF0023237744
:1023100023681A6912F0010F03D0DA6812F0010F76
:1023200036D123681A6912F0800F03D0DA6812F0F0
:10233000800F34D123681A6912F0400F03D0DA6895
:1023400012F0400F32D123681A6912F0200F03D027
:10235000DA6812F0200F30D110BDFFF774FF20466D
:10236000FFF773FF8AE72046FFF76DFF2046FFF770
:102370006CFF9BE72046FFF766FF2046FFF765FFEF
:10238000ACE72046FFF75FFF2046FFF75EFFBDE7A3
:102390006FF001021A612046FDF72AFFC1E76FF0D6
:1023A00080021A61204600F01AF9C3E76FF040027C
:1023B0001A612046FFF74AFFC5E76FF020021A6155
:1023C000204600F00BF9C7E70368174A904206D091
:1023D000B0F1804F03D0A2F59432904203D123F0A4
:1023E00070034A681343104A904206D0B0F1804F00
:1023F00003D0A2F59432904203D123F44073CA680B
:10240000134323F080034A69134303608B68C3625C
:102410000B688362044B984202D0012343617047EA
:102420000B690363F9E700BF002C014040B310B50E
:10243000044690F83D30F3B1022384F83D30214644
:1024400051F8040BFFF7C0FF012384F8463084F8ED
:102450003E3084F83F3084F8403084F8413084F8CE
:10246000423084F8433084F8443084F8453084F8AE
:102470003D30002010BD80F83C3001F043FEDBE72A
:102480000120704710B4846824F47F4C42EA032290
:102490000A4342EA0C02826010BC704790F83C305C
:1024A000012B66D010B50446012380F83C3002238E
:1024B00080F83D300268936823F47F4323F077036C
:1024C00093600B68602B40D022D8402B47D00BD9AB
:1024D000502B0ED1CA6849680068FFF73DFE5021B5
:1024E0002068FFF75EFE04E0202B0CD008D9302BCB
:1024F00009D0012384F83D30002084F83C0010BD51
:102500000BB1102BF5D119462068FFF74AFEF0E712
:10251000702B0ED0B3F5005FEBD1CB684A688968A9
:102520000068FFF7AFFF2268936843F4804393602D
:10253000DFE7CB684A6889680068FFF7A3FF226875
:10254000936843F077039360D3E7CA6849680068EB
:10255000FFF714FE60212068FFF723FEC9E7CA6871
:1025600049680068FFF7F8FD40212068FFF719FE71
:10257000BFE702207047000090F83C30012B28D0C4
:1025800010B4012380F83C30022380F83D3003680A
:102590005A689C6822F0700C0A6842EA0C025A6081
:1025A00003680D4A934206D0B3F1804F03D0A2F5E1
:1025B0009432934204D124F080044A6814439C600E
:1025C000012380F83D30002380F83C30184610BCD1
:1025D00070470220704700BF002C014070477047D1
:1025E000704708B5012001F0CDFAFBE708B5FEF70A
:1025F000C1F9012001F0C6FAF9E708B5FDF794FF2B
:10260000012001F0BFFAF9E710B590B01B4C0DF1B5
:102610002C0CA646BEE80F00ACE80F00DEF8003038
:10262000CCF8003000210BA801F092FA144B18608E
:102630000DF1180C04F1140EBEE80F00ACE80F0009
:10264000DEF80030CCF80030002106A801F080FA56
:102650000C4B18600DF1040E04F1280CBCE80F00BF
:10266000AEE80F00DCF80030CEF80030002101A801
:1026700001F06EFA044B186010B010BD184200084B
:102680004C090020480900204409002000B589B009
:10269000014600221920FFF719FD1920FFF74EFD12
:1026A000144B9A6942F400629A619B6903F40063D7
:1026B0000193019B02A903A8FFF7B8FBFFF7A6FB54
:1026C0000D4BA3FB00239B0C013B0C480C4A026002
:1026D00040F2E732C2604360002303618360FFF78A
:1026E000A5FE18B1012009B05DF804FB0348FFF70F
:1026F00061FDF8E70010024083DE1B435009002013
:10270000002C014000F1080343604FF0FF3282606B
:10271000C3600361002303607047002303617047B7
:1027200043684B609A688A605160996008610368E9
:1027300001330360704730B40D68B5F1FF3F11D02D
:1027400000F108031C465B681A68AA42FAD963685C
:102750004B6099608C6061600861036801330360BD
:1027600030BC70470469F2E70369416882688A6097
:10277000416851605A68824206D0002202611A689C
:10278000013A1A601868704782685A60F5E710B518
:10279000044601F067FBA26BE36B9A4204D000246D
:1027A00001F082FB204610BD0124F9E710B5044674
:1027B00001F058FBA36B23B9012401F075FB2046FF
:1027C00010BD0024F9E770B504461546866B026C0F
:1027D0005AB903681BB100200136A66370BD40687A
:1027E00000F05CFF00236360F6E76DB9806801F0DC
:1027F000F1FC226CA3681344A3606268934219D36E
:102800002368A3602846E7E7C06801F0E3FC226C78
:102810005142E3689B1AE3602268934202D26368E4
:102820000B44E360022D01D00020D5E726B1013E24
:102830000020D1E72846CFE70020CDE708B50346C2
:10284000026C62B10846D9681144D960D3F804C05B
:10285000614501D31968D960D96801F0BBFC08BD96
:1028600038B5054601F0FEFA95F8454064B201E03E
:10287000013C64B2002C0ADD6B6A43B105F124000F
:1028800000F062FE0028F3D000F0F2FEF0E7FF2334
:1028900085F8453001F008FB01F0E4FA95F8444072
:1028A00064B201E0013C64B2002C0ADD2B6943B143
:1028B00005F1100000F048FE0028F3D000F0D8FE2B
:1028C000F0E7FF2385F8443001F0EEFA38BD38B563
:1028D000E0B10D46044601F0C5FA2368E26B216CB5
:1028E00001FB023060600020A063A360013A02FB9C
:1028F0000133E360FF2384F8443084F84530FDB9A8
:10290000236963B901F0D0FA012038BD4FF05003BC
:1029100083F31188BFF36F8FBFF34F8FFEE704F18E
:10292000100000F011FE0028ECD04FF0E0234FF033
:102930008052C3F8042DBFF34F8FBFF36F8FE1E7D1
:1029400004F11000FFF7DEFE04F12400FFF7DAFEC9
:10295000D8E738B51D46049C0B4649B92460E063AE
:10296000236401212046FFF7B2FF84F84C5038BDA4
:102970002260F4E740B94FF0500383F31188BFF3AE
:102980006F8FBFF34F8FFEE7F0B583B00C4615464F
:10299000064689B101FB00F0503001F05FF90746AF
:1029A00038B100902B4600F1500221463046FFF727
:1029B000D0FF384603B0F0BD0846EDE7F0B585B06E
:1029C000019288B10F461D460446B1B1022D20D1B7
:1029D000E36B012B1DD04FF0500383F31188BFF33D
:1029E0006F8FBFF34F8FFEE74FF0500383F31188D3
:1029F000BFF36F8FBFF34F8FFEE7036C002BE5D063
:102A00004FF0500383F31188BFF36F8FBFF34F8FE5
:102A1000FEE700F033FE064658B9019B002B48D074
:102A20004FF0500383F31188BFF36F8FBFF34F8FC5
:102A3000FEE700263DE02A4639462046FFF7C3FE62
:102A4000636A7BB948B14FF0E0234FF08052C3F87E
:102A5000042DBFF34F8FBFF36F8F01F025FA0120D4
:102A600005B0F0BD04F1240000F06EFD0028F4D0A4
:102A70004FF0E0234FF08052C3F8042DBFF34F8F87
:102A8000BFF36F8FE9E701F00FFA0020E8E702A833
:102A900000F0A0FD012619E0002384F8443021E075
:102AA000002384F8453023E02046FFF7D9FE00F0EC
:102AB00029FC01F0D7F9A26BE36B9A42BBD3022D3C
:102AC000B9D0019B002BDED0002EE0D001F0ECF954
:102AD00000F07EFB01F0C6F994F8442052B2B2F146
:102AE000FF3FD9D094F8452052B2B2F1FF3FD7D082
:102AF00001F0DAF901A902A800F078FDD8B9204662
:102B0000FFF745FE0028CFD0019904F1100000F036
:102B1000E7FC2046FFF7A4FE00F0F4FB0028C8D134
:102B20004FF0E0234FF08052C3F8042DBFF34F8FD6
:102B3000BFF36F8FBDE72046FFF792FE00F0E2FB88
:102B400000208DE72DE9F84390B10F4616461C464C
:102B50000546B1B1022C20D1EB6B012B1DD04FF0FB
:102B6000500383F31188BFF36F8FBFF34F8FFEE7DE
:102B70004FF0500383F31188BFF36F8FBFF34F8F74
:102B8000FEE7036C002BE5D04FF0500383F3118870
:102B9000BFF36F8FBFF34F8FFEE701F04DFAEFF3F6
:102BA00011894FF0500383F31188BFF36F8FBFF388
:102BB0004F8FAA6BEB6B9A4206D3022C04D00020F5
:102BC00089F31188BDE8F88395F845804FFA88F8B5
:102BD000224639462846FFF7F6FDB8F1FF3F06D0FA
:102BE00008F101035BB285F845300120E8E76B6A24
:102BF0000BB90120E4E705F1240000F0A5FC18B1B1
:102C000026B101203060DBE70120D9E70120D7E7BA
:102C1000F0B585B0019290B10F460446C1B100F005
:102C20002DFD064600BB019B002B5ED04FF05003EC
:102C300083F31188BFF36F8FBFF34F8FFEE74FF021
:102C4000500383F31188BFF36F8FBFF34F8FFEE7FD
:102C5000036C002BE3D04FF0500383F31188BFF3D4
:102C60006F8FBFF34F8FFEE700263EE039462046C8
:102C7000FFF7E4FD013DA563236923B901F014F9D1
:102C8000012005B0F0BD04F1100000F05DFC00284B
:102C9000F4D04FF0E0234FF08052C3F8042DBFF37F
:102CA0004F8FBFF36F8FE9E701F0FEF80020E8E7F0
:102CB00002A800F08FFC012621E0002384F84430B4
:102CC00029E0002384F845302BE02046FFF7C8FDBB
:102CD00000F018FB09E02046FFF7C2FD00F012FBF0
:102CE0002046FFF763FD00283FD101F0BBF8A56B3C
:102CF000002DBBD1019B002BD6D0002ED8D001F0E7
:102D0000D3F800F065FA01F0ADF894F844305BB206
:102D1000B3F1FF3FD1D094F845305BB2B3F1FF3F40
:102D2000CFD001F0C1F801A902A800F05FFC002893
:102D3000D1D12046FFF73AFD0028C6D0019904F111
:102D4000240000F0CDFB2046FFF78AFD00F0DAFA00
:102D50000028CAD14FF0E0234FF08052C3F8042D71
:102D6000BFF34F8FBFF36F8FBFE7002089E70000ED
:102D70000023072B0CD8074A52F833200AB101333D
:102D8000F7E7044A42F8331002EBC3035860704778
:102D9000704700BF9809002070B504460D461646DE
:102DA00001F060F894F844305BB2B3F1FF3F0DD00E
:102DB00094F845305BB2B3F1FF3F0BD001F074F8EB
:102DC000A36B5BB12046FFF74BFD70BD002384F879
:102DD0004430EDE7002384F84530EFE732462946DA
:102DE00004F1240000F094FBECE70000084B1B68A2
:102DF0001B6823B9074B4FF0FF321A607047044B32
:102E00001B68DB68DB685A68024B1A60704700BFBA
:102E1000DC090020B40A002010B50446006B00F065
:102E200095FF204600F092FF10BD2DE9F047804647
:102E30000D4617469946089EDDF824A00A9C92008C
:102E4000A521206B01F0D4F9236B07F18042013AF0
:102E500003EB820727F007074FF0000CBCF10F0FC0
:102E60000BD815F80C2004EB0C0383F8342015F86C
:102E70000C3013B10CF1010CF0E7002384F843305F
:102E8000062E00D90626E662E66400252565201D8B
:102E9000FFF743FC04F11800FFF73FFC2461C6F183
:102EA0000706A6616462656584F858504A46414643
:102EB000384600F0B3FF2060BAF1000F01D0CAF825
:102EC0000040BDE8F087000038B5002407E004EBBF
:102ED000840293000E481844FFF714FC0134062CBA
:102EE000F5D90C4D2846FFF70DFC0B4C2046FFF79B
:102EF00009FC0A48FFF706FC0948FFF703FC0948EC
:102F0000FFF700FC084B1D60084B1C6038BD00BF7C
:102F1000E4090020880A00209C0A0020BC0A002046
:102F2000E80A0020D40A0020DC090020E009002083
:102F300010B5044600F096FF224A1368013313606F
:102F4000214B1B685BB1214B1B686BB91E4B1B6887
:102F5000DA6AE36A9A4207D81B4B1C6004E01A4BFA
:102F60001C601368012B29D0194A136801331360C0
:102F70006364E06A01238340164A11680B431360BF
:102F800000EB8000211D144B03EB8000FFF7C8FB12
:102F900000F08AFF0D4B1B687BB10B4B1B68DA6A94
:102FA000E36A9A4209D24FF0E0234FF08052C3F80F
:102FB000042DBFF34F8FBFF36F8F10BDFFF784FF5A
:102FC000D2E700BF700A0020D8090020D00A0020F4
:102FD000800A0020840A0020E40900200F4B1B68AF
:102FE000D3B110B500F03EFF0D4BDB68DC68201D4F
:102FF000FFF7BAFB0B4A1368013B1360074A1368DB
:10300000013B136000F050FF2046FFF705FF034B24
:103010001B68002BE6D110BD704700BF740A00206A
:10302000E80A0020700A002008B5FFF7D7FF074B19
:103030001B68012BF9D94FF0E0234FF08052C3F801
:10304000042DBFF34F8FBFF36F8FEEE7E40900202D
:1030500070B504460D461D4B1E681D4B18680430A4
:10306000FFF782FB50B91A4B1B68DA6A012303FA97
:1030700002F218490B6823EA02030B60B4F1FF3F28
:103080000DD03444124B1B685C60A64210D9124B21
:1030900018680F4B19680431FFF74DFB70BD002D08
:1030A000EFD00B4B196804310C48FFF739FBF5E7FB
:1030B0000B4B1868064B19680431FFF73CFB094BB2
:1030C0001B68A342EAD9074B1C60E7E7FC0A002013
:1030D000D8090020840A0020E0090020D40A00203A
:1030E000DC090020B40A00202DE9F04385B0074632
:1030F000884614461E46900000F0B0FDF0B18146AF
:103100005C2000F0ABFD0546A0B1C0F83090D5B111
:103110000023039302950D9B01930C9B0093334670
:10312000224641463846FFF780FE2846FFF700FF5B
:10313000012005E0484600F009FEE8E74FF0FF30C7
:1031400005B0BDE8F0834FF0FF30F9E700B583B07C
:10315000194B019300230093802218491848FFF768
:10316000C3FF012807D0012808D0B0F1FF3F1AD0D3
:1031700003B05DF804FB00F04DFBF4E74FF05003A3
:1031800083F31188BFF36F8FBFF34F8F0D4B4FF059
:10319000FF321A600C4B01221A600C4B00221A609D
:1031A00000F0EAFEE4E74FF0500383F31188BFF329
:1031B0006F8FBFF34F8FFEE7B00A002078430008FF
:1031C00029300008B40A0020D00A0020FC0A0020A0
:1031D000024A136801331360704700BF7C0A002065
:1031E000014B1868704700BFFC0A0020F8B53A4B45
:1031F0001B68002B64D1394B1D6801351D60C5B9B2
:10320000374B1B681B6843B14FF0500383F31188A1
:10321000BFF36F8FBFF34F8FFEE7314A1168314B19
:10322000186810601960304A136801331360FFF7A3
:10323000DDFD2E4B1B68AB4238D900272C4B1B6899
:10324000DB6A03EB83039A002A4B9B58012B3CD982
:1032500001273AE00127224B1B681B6843B3204B30
:103260001B68DB68DC6863689D4226D3261D3046F8
:10327000FFF77AFAA36A1BB104F11800FFF774FA9A
:10328000E36A01229A401C49086802430A6003EB82
:1032900083039A00314617481044FFF741FAE26A67
:1032A000134B1B68DB6A9A42D4D2D4E70027D2E7DB
:1032B0000E4B4FF0FF321A60C0E70C4A1360BDE7B7
:1032C0000E4A13680133136000270D4B1B6803B1CE
:1032D00001273846F8BD00BF7C0A0020FC0A002008
:1032E000DC090020E0090020B80A0020B40A002010
:1032F000D8090020E4090020840A0020780A002070
:10330000000B002038B5354B1B6843B94FF0500314
:1033100083F31188BFF36F8FBFF34F8FFEE700F089
:10332000A1FD2E4B1A68013A1A601B68002B4FD181
:103330002B4B1B680BB900244BE00024294B1B6866
:103340001BB3284BDB68DC6804F11800FFF70CFAAC
:10335000251D2846FFF708FAE06A01238340224A28
:1033600011680B43136000EB800029461F4B03EBF1
:103370008000FFF7D5F9E26A1D4B1B68DB6A9A42B1
:10338000DCD31C4B01221A60D8E70CB1FFF72EFDED
:10339000194B1C6884B9174B1C68D4B14FF0E0235B
:1033A0004FF08052C3F8042DBFF34F8FBFF36F8FE0
:1033B00001240EE0013C07D0FFF718FF0028F9D0E8
:1033C0000C4B01221A60F5E70B4B00221A60E2E772
:1033D000002400F069FD204638BD00BF7C0A0020B3
:1033E000700A0020BC0A0020840A0020E4090020A2
:1033F000D8090020000B0020780A002010B5A8B1E1
:103400000446104B1B6843B14FF0500383F31188FF
:10341000BFF36F8FBFF34F8FFEE7FFF7D9FE002199
:103420002046FFF715FEFFF76DFF48B94FF0E02388
:103430004FF08052C3F8042DBFF34F8FBFF36F8F4F
:1034400010BD00BF7C0A0020204B1B681BB1204B25
:1034500001221A6070471E4B00221A601D4B1B6828
:10346000B3FA83F3DBB2C3F11F0303EB83018A00DA
:1034700019498A5842B94FF0500383F31188BFF3BA
:103480006F8FBFF34F8FFEE7134903EB830082007A
:103490000A4450684068506003EB830C4FEA8C028A
:1034A00008321144884209D003EB83039A000A4B87
:1034B00013445B68DA68094B1A60704740686246DB
:1034C0009100054A0A445060EEE700BF7C0A0020E4
:1034D000000B0020840A0020E4090020D809002005
:1034E00058B110B50C46094A11681831FFF723F995
:1034F00001212046FFF7ACFD10BD4FF0500383F3D0
:103500001188BFF36F8FBFF34F8FFEE7D8090020FC
:1035100038B570B10D4614460A4A11681831FFF7E4
:10352000FFF80CB14FF0FF3521462846FFF790FD1C
:1035300038BD4FF0500383F31188BFF36F8FBFF393
:103540004F8FFEE7D809002038B5C368DC6824B384
:1035500004F118052846FFF707F9184B1B682BBB29
:10356000251D2846FFF700F9E06A01238340144A2D
:1035700011680B43136000EB80002946114B03EBED
:103580008000FFF7CDF8E26A0F4B1B68DB6A9A42B6
:1035900011D901200D4B186038BD4FF0500383F353
:1035A0001188BFF36F8FBFF34F8FFEE7294608489E
:1035B000FFF7B6F8E7E70020EEE700BF7C0A00203F
:1035C000840A0020E4090020D8090020000B002014
:1035D000BC0A0020034B1B680360034B1B6843605D
:1035E000704700BFB80A0020FC0A0020D8B170B5AF
:1035F0000C46054601B300F035FC1B4B19686B689F
:10360000C81A2268B2F1FF3F27D0184E3668D5F8A5
:1036100000C0B44501D08B4224D9824215D8002382
:10362000236001241AE04FF0500383F31188BFF3A5
:103630006F8FBFF34F8FFEE74FF0500383F3118876
:10364000BFF36F8FBFF34F8FFEE75B1A1344236006
:103650002846FFF7BFFF002400E0002400F024FC10
:10366000204670BD0124F9E7FC0A0020B80A0020BA
:10367000014B01221A607047000B0020054B1B68AC
:1036800033B1054B1B680BB1002070470220704717
:1036900001207047D00A00207C0A002000284CD06E
:1036A00038B50446274B1B68834208D04FF05003BF
:1036B00083F31188BFF36F8FBFF34F8FFEE7036D66
:1036C00043B94FF0500383F31188BFF36F8FBFF3FB
:1036D0004F8FFEE7013B0365C16AC26C91422ED059
:1036E0000BB1002038BD051D2846FFF73DF870B925
:1036F000E26A02EB82039B001349CB583BB90123DA
:1037000003FA02F211490B6823EA02030B60E06C32
:10371000E062C0F10703A361012404FA00F30B4A3D
:1037200011680B43136000EB80002946064B03EB46
:103730008000FEF7F5FF2046D4E700207047002008
:10374000D0E700BFD8090020E4090020840A002047
:10375000064B1A681368B3FA83F35B09036013B965
:10376000D368186870470020704700BF040B002022
:1037700008B54160006191420CD8D21A83699A421F
:1037800001D3012008BD011D094B1868FEF7D3FFC6
:103790000020F7E79A4201D2994206D2011D054B5B
:1037A0001868FEF7C8FF0020ECE70120EAE700BF39
:1037B000080B0020040B002038B500F053FB0F4B22
:1037C0001B6813B100F070FB38BD0D4D2846FEF7A5
:1037D00099FF0C4C2046FEF795FF0B4B1D600B4BE1
:1037E0001C6000220C210A20FFF7C4F8034B18606C
:1037F0000028E7D00649FFF7BBFAE3E7380B0020C3
:103800000C0B0020200B0020040B0020080B0020D4
:103810008043000800B583B0FFF7CEFF0D4B1B6857
:103820005BB10D4B01930223009300234FF4807290
:103830000A490B48FFF758FC40B94FF0500383F397
:103840001188BFF36F8FBFF34F8FFEE703B05DF8B2
:1038500004FB00BF380B00203C0B0020884300080D
:10386000253B0008B8B19C4603461848006858B389
:1038700000B585B001910292039305291CDCFFF786
:10388000FDFE022810D000231A4601A90F48006847
:10389000FFF794F815E04FF0500383F31188BFF35E
:1038A0006F8FBFF34F8FFEE70023069A01A90748E9
:1038B0000068FFF783F804E00023624601A9FFF7E0
:1038C00041F905B05DF804FB00207047380B00207B
:1038D00070B582B01A4B1B681A6852B3DB681E6859
:1038E000DC68251D2846FEF73FFF636A204698479F
:1038F000E369012BEED1A36933449E4207D2636092
:10390000246129460E4B1868FEF715FFE2E70021F7
:1039100000910B4632462046FFF7A4FF0028D9D17C
:103920004FF0500383F31188BFF36F8FBFF34F8FB6
:10393000FEE7044A106802490860136002B070BDD7
:10394000040B0020080B002038B50546FFF748FCA3
:103950000446074B1B68834205D800232B60044BA9
:103960001C60204638BDFFF7B3FF01232B60F6E74C
:10397000340B002070B582B006460D461449096824
:10398000C968CC68201DFEF7EFFEE169012904D06B
:10399000636A2046984702B070BDA16933462A4643
:1039A00031442046FFF7E4FE0028F1D000210091C9
:1039B0000B4632462046FFF755FF0028E8D14FF06E
:1039C000500383F31188BFF36F8FBFF34F8FFEE770
:1039D000040B002070B582B006460C46FFF7F8FBDA
:1039E00001A8FFF7B1FF019B2BBB05460CB9B04204
:1039F0001AD22CB1124B1B681C68B4FA84F4640907
:103A00002246711B0F4B1868FFF7C6F9FFF77AFCC7
:103A100098B94FF0E0234FF08052C3F8042DBFF364
:103A20004F8FBFF36F8F08E0FFF76CFC29463046DD
:103A3000FFF7A0FF01E0FFF765FC02B070BD00BF1B
:103A4000080B0020380B002010B586B0002203A917
:103A5000334B1868FFF7DCF800285FD0039B002B7E
:103A6000F4DB059C636913B1201DFEF77DFE02A8FF
:103A7000FFF76AFF039B092BE8D801A252F823F055
:103A8000A93A0008A93A0008A93A00084D3A0008E6
:103A9000EF3A0008153B0008A93A0008A93A0008C7
:103AA0004D3A0008EF3A0008049BA1690246194408
:103AB0002046FFF75DFE0028C8D0636A204698477D
:103AC000E369012BC2D1A269002100910B46049841
:103AD00002442046FFF7C6FE0028B7D14FF050033E
:103AE00083F31188BFF36F8FBFF34F8FFEE7049905
:103AF000A16131B10346024601442046FFF738FE7A
:103B0000A4E74FF0500383F31188BFF36F8FBFF327
:103B10004F8FFEE7204600F019F997E706B010BD79
:103B2000380B002000B583B001A8FFF711FE019902
:103B3000FFF750FFFFF788FFF6E7842801D0033036
:103B400070470020704708B5FFF700FB002008BD54
:103B5000F0B585B00C46456806680769B0F90800FD
:103B6000FFF7EBFF03AB019300902346BAB2314657
:103B70002846FFF7B9FA012802D1039805B0F0BD35
:103B80000020FBE708B500B90120FFF737FC002053
:103B900008BD0000134A12F0070F1FD0D11D21F0FD
:103BA0000701C1F59C53083313440A460E480260CE
:103BB000002141601344083B23F007030B480360D6
:103BC00059601960991A51601360094B1960094BCB
:103BD0001960094B4FF000421A60704741F2883378
:103BE000E4E700BF440B0020D81E0020400B00205B
:103BF000D41E0020D01E0020CC1E0020154B1A46DB
:103C00001B688342FBD3516802EB010C844509D049
:103C1000416800EB010C634509D00360904218D065
:103C2000106070474068014451601046F0E710B4DE
:103C3000094C2468A3420AD05B68194441601368A8
:103C40001B680360904200D0106010BC7047046095
:103C5000F8E77047D81E0020400B002070B50546DD
:103C6000FFF7B6FA344B1B68A3B1344B1B681D42F7
:103C70004AD135B1083515F0070F02D025F00705F8
:103C80000835002D42D02E4B1B68AB424DD32D4A38
:103C9000146804E0FFF77EFFE7E722461C466368EE
:103CA000AB4202D22368002BF7D1234B1B68A342FF
:103CB0003DD0166808362368136063685B1B102BC1
:103CC00010D9601910F0070F08D04FF0500383F39C
:103CD0001188BFF36F8FBFF34F8FFEE743606560BE
:103CE000FFF78CFF626816490B689B1A0B60164938
:103CF00009688B4201D214490B60104B1B681343B7
:103D000063600023236002E0002600E00026FFF746
:103D1000F9FA16F0070F0CD04FF0500383F3118817
:103D2000BFF36F8FBFF34F8FFEE70026EFE700264C
:103D3000EDE7304670BD00BF400B0020CC1E0020D8
:103D4000D01E0020D81E0020D41E002080B338B51D
:103D50000446A0F1080550F8043C164A12681342C4
:103D600008D14FF0500383F31188BFF36F8FBFF377
:103D70004F8FFEE750F8081C41B14FF0500383F31A
:103D80001188BFF36F8FBFF34F8FFEE723EA020363
:103D900040F8043CFFF71CFA54F8041C064A136868
:103DA0000B4413602846FFF729FFFFF7ABFA38BD35
:103DB000704700BFCC1E0020D01E002082B0002320
:103DC00001930D4B1B68B3F1FF3F08D04FF0500338
:103DD00083F31188BFF36F8FBFF34F8FFEE74FF070
:103DE000500383F31188BFF36F8FBFF34F8F019B95
:103DF000002BFCD002B0704730000020064800685D
:103E0000006880F3088862B661B6BFF34F8FBFF3D6
:103E10006F8F00DF00BF000008ED00E04FF08073FF
:103E200040F8043C21F0010140F8081C034B40F825
:103E30000C3C40F8202C4038704700BFBD3D0008C6
:103E4000074B19680868B0E8F00F80F30988BFF3E2
:103E50006F8F4FF0000080F311884EF00D0E704709
:103E6000D80900204FF0500383F31188BFF36F8F00
:103E7000BFF34F8F0B4A136801331360012B00D03F
:103E800070474FF0E023D3F8043D13F0FF0FF7D055
:103E90004FF0500383F31188BFF36F8FBFF34F8F41
:103EA000FEE700BF30000020094B1B6843B94FF00C
:103EB000500383F31188BFF36F8FBFF34F8FFEE77B
:103EC000013B034A13600BB983F31188704700BFAD
:103ED0003000002000000000000000000000000092
:103EE000EFF30980BFF36F8F0D4B1A6820E9F00FD5
:103EF00010602DE908404FF0500080F31188FFF763
:103F0000A3FA4FF0000080F31188BDE8084019685B
:103F10000868B0E8F00F80F30988BFF36F8F70472F
:103F2000D809002008B54FF0500383F31188BFF380
:103F30006F8FBFF34F8FFFF759F928B14FF0E02390
:103F40004FF08052C3F8042D002383F3118808BD7D
:103F50004FF0E022002313619361054B1B68054974
:103F6000A1FB03139B09013B5361072313617047B6
:103F70002C000020D34D621010B582B02A4B1A7865
:103F8000D2B20192FF221A701B78DBB28DF8033097
:103F90009DF8033003F05003244A1370244B07228A
:103FA0001A6009E0224A1368013B13609DF8033050
:103FB0005B00DBB28DF803309DF8033013F0800F07
:103FC000F0D11B4B1B68032B08D04FF0500383F339
:103FD0001188BFF36F8FBFF34F8FFEE71B02144AA8
:103FE000136003F4E0631360019BDBB20E4A1370AD
:103FF0004FF0E023D3F8202D42F47002C3F8202DB7
:10400000D3F8202D42F07042C3F8202DFFF7A0FF17
:104010000024084B1C60FFF7F1FEFFF715FAFFF7CD
:10402000CDFE204602B010BD00E400E0E01E0020FE
:10403000E41E002030000020EFF305830F2B0FD982
:10404000114A9B5CDBB2114A12789A4208D94FF0B0
:10405000500383F31188BFF36F8FBFF34F8FFEE7D9
:104060004FF0E023D3F80C3D03F4E063084A1268F4
:10407000934208D94FF0500383F31188BFF36F8F39
:10408000BFF34F8FFEE77047F0E300E0E01E002033
:10409000E41E002000B587B000230293039304932D
:1040A00005930093019316484FF08042026048F652
:1040B0009F424260836044F61F62C26003618023B6
:1040C0008361FEF7B3F990B94FF48053029302A9CC
:1040D0000B48FEF7E3F968B90023009301936946A2
:1040E0000748FEF749FA40B907B05DF804FBFCF752
:1040F000A7F8E9E7FCF7A4F8EEE7FCF7A1F8F3E787
:10410000E81E00200368B3F1804F00D0704700B56F
:1041100083B003F50433DA6942F00102DA61DB6946
:1041200003F001030193019B00220F211C20FDF7E6
:10413000CDFF1C20FEF702F803B05DF804FB000081
:104140000C480D490D4A002302E0D458C4500433F2
:10415000C4188C42F9D30A4A0A4C002301E01360C8
:104160000432A242FBD3FEF73BFA00F00FF8FCF753
:1041700019F8704700000020340000209843000820
:1041800034000020301F0020FEE7000070B500263C
:104190000C4D0D4C641BA410A64209D100F030F860
:1041A00000260A4D0A4C641BA410A64205D170BD1E
:1041B00055F8043B98470136EEE755F8043B98471D
:1041C0000136F2E79043000890430008904300084E
:1041D000944300080A44914200F1FF3300D1704734
:1041E00010B511F8014B914203F8014FF9D110BD00
:1041F00003460244934200D1704703F8011BF9E7DC
:10420000F8B500BFF8BC08BC9E467047F8B500BFC3
:08421000F8BC08BC9E46704793
:1042180058430008E32500080000000000000000E3
:104228008000000064430008ED250008FEFF000040
:1042380000000000800000006C430008FB25000817
:10424800FFFF0000000000008000000000000000E8
:104258003202000000000000010000000001000020
:1042680000000000020000005103000000000000F0
:1042780003000000450200000000000004000000E8
:10428800540300000000000005000000FE020000CA
:104298000000000006000000AA0100000000000065
:1042A80007000000230500000100000008000000CE
:1042B8002007000002000000000000003202000099
:1042C80000000000010000000001000000000000E4
:1042D800020000005103000000000000030000007D
:1042E8004502000000000000040000005403000024
:1042F8000000000005000000FE02000000000000B1
:1043080006000000AA0100000000000007000000ED
:104318000105000001000000080000002807000057
:104328000200000002030405060708090A0B0C0D29
:104338000E0F101000000000000000000000000038
:104348000102030406070809000000000102030433
:1043580064656661756C745461736B004C454454B4
:1043680061736B0043414E494652585461736B0068
:1043780049444C4500000000546D72510000000093
:08438800546D722053766300AE
:0443900035010008EB
:04439400110100080B
:104398000A000000FFFFFFFFAA9988776655000012
:1043A8000100000011111111111111111111111138
:1043B8001111111111010100100000000024F40076
:0443C800AAAAAAAA49
:04000005080041416D
:00000001FF
